S01100006F6E6C696E652031352E7372656308
S113000029C0000099C50000C0C50000E7C5000074
S11300103CC000003AC0000085C6000031C60000A4
S113002058C6000004C6000030C000002EC0000006
S11300302CC00000A0C60000BDC60000DEC6000043
S113004024C0000022C0000020C000001EC0000028
S11300501CC0000011241FBECFE5D8E0DEBFCDBF19
S113006010E0A0E6B0E0E4E7FFE002C005900D92E6
S1130070A63EB107D9F721E0A6EEB0E001C01D927B
S1130080AB33B207E1F7D8D373C7BACFCCD310924E
S1130090FE001092FA001092FB001092FC001092E5
S11300A0FD001092E8001092E7001092EA0010920E
S11300B0E9001092F900AFEFB0E0E7EEF0E080E085
S11300C0873010F4148213861D928F5F3196883125
S11300D0B9F7089565E081E099D380E990E07BD396
S11300E062E082E093D388E990E075D32FEF89E64C
S11300F098E1215080409040E1F700C0000061E0A9
S113010082E084D386EA90E0CCD261E082E07ED3C0
S113011087EB90E060D32FEF89E698E1215080408F
S11301209040E1F700C000007EC3CF92DF92EF92CF
S1130130FF92CF938091E600823069F028F48823FF
S113014061F0813081F199C1833009F4B7C0843002
S113015009F44CC192C190E07FC09FD1882309F477
S11301608CC18D3341F4E091FE00F0E0E150FF4F8B
S1130170108281E055C0833631F4CF91FF90EF9027
S1130180DF90CF9083CF9091FE00E92FF0E0E15013
S1130190FF4F80839F5F9093FE00CF91FF90EF907D
S11301A0DF90CF907DC29091FF0086ED890F823061
S11301B028F081E09F3219F080E001C081E090E0F6
S11301C031E0E32FF0E0E150FF4F20812223E1F002
S11301D046ED420F423020F0422F4D7F4D3291F4D4
S11301E09F5F923061F42D3261F43197208146EDA6
S11301F0420F423038F02D7F2D3219F403C0933072
S113020008F081E03F5FDDCF3197908126ED290F23
S1130210223048F09D7F9D3231F0811104C082E08C
S11302208093E6002AC161E082E0F0D287EC90E09E
S113023038D22FEF89E698E1215080409040E1F7D1
S113024000C00000D7C0382F3D7F3D3289F0FA014D
S1130250E951FF4F8483922F492F50E0FA01E15076
S1130260FF4F808136ED380F21E0290F323058F7E7
S1130270992369F38093F90030E0E22FF0E0E15034
S1130280FF4F4081832F90E0FC01E951FF4F44234D
S113029021F043873F5F2F5FF0CF13868BEE90E012
S11302A00FD69093E8008093E70082EF90E008D6A1
S11302B09093EA008093E90083E0B2CF8091F90043
S11302C08B32D9F0A8F48A3209F077C02091E70084
S11302D03091E800A091E900B091EA00D6D560938E
S11302E0FA007093FB008093FC009093FD0065C0BE
S11302F08D32C1F08F3299F160C08091E700909106
S1130300E800AC01990F660B770B8091E90090919E
S1130310EA00092E000CAA0BBB0B840F951FA61F25
S1130320B71F14C08091E7009091E800092E000CDB
S1130330AA0BBB0B4091E9005091EA00052E000C7A
S1130340660B770B841B950BA60BB70B8093FA00F7
S11303509093FB00A093FC00B093FD002EC020916D
S1130360E9003091EA0021153105B1F06091E70010
S11303707091E800072E000C880B990B032E000CDB
S1130380440B550B66D52093FA003093FB00409341
S1130390FC005093FD0011C061E082E037D285ED8E
S11303A090E07FD12FEF89E698E121508040904082
S11303B0E1F700C000006ADE17C061E082E026D2E7
S11303C08DE36ED16091FA007091FB008091FC0086
S11303D09091FD0078D12FEF89E698E1215080407B
S11303E09040E1F700C0000084E01ACF56D0C82F37
S11303F0833611F44BDE3FC08D7F8D3221F086EDC4
S11304008C0F823038F5C090FA00D090FB00E09059
S1130410FC00F090FD003ADE4AE06FEF70E0C601A8
S11304206CD5EFEFF0E001900020E9F73197EF5F32
S1130430F04081E08E0F8093FE00FF27E150FF4FD4
S1130440C083E82FF0E0E150FF4F10828FEF90E07F
S113045028D111C080ED8C0F8A3078F417DE80919A
S1130460FE00E82FF0E0E150FF4FC0838F5F8093E0
S1130470FE008C2F15D11092E600CF91FF90EF90E3
S1130480DF90CF900895CF93CCE061E08C2FDAD148
S1130490CF5FC031D1F7CF910895DF92EF92FF92F1
S11304A00F931F93CF93DF9390E8E92E90E0F92EFA
S11304B0CCE0D0E060E08C2FC5D100E010E08AE110
S11304C0D82ED00E8D2D3DD2811114C0F701E00F2E
S11304D0F11FD0818FE097E20197F1F700C000008F
S11304E08D2D2FD28823E1F38FE097E20197F1F766
S11304F000C000000F5F1F4F0430110501F761E0D9
S11305008C2FA0D1CF5F94E0E90EF11CC03191F69D
S11305108D2FDF91CF911F910F91FF90EF90DF907E
S11305200895CF93C82F60E081E08CD16C2F661FB3
S11305306627661F86E086D1C6FB662760F985E0DC
S113054081D1C5FB662760F984E07CD1C4FB6627B2
S113055060F983E077D161E082E074D18FEC97E0B9
S11305600197F1F700C0000060E082E06BD18FECEE
S113057097E00197F1F700C00000C3FB662760F91C
S113058086E060D1C2FB662760F985E05BD1C1FBE0
S1130590662760F984E056D16C2F617083E052D1F4
S11305A061E082E04FD18FEC97E00197F1F700C052
S11305B0000060E082E046D18FEC97E00197F1F70C
S11305C000C00000CF910895CF93C82F61E081E06F
S11305D039D16C2F661F6627661F86E033D1C6FBB0
S11305E0662760F985E02ED1C5FB662760F984E0B3
S11305F029D1C4FB662760F983E024D161E082E05D
S113060021D18FEC97E00197F1F700C0000060E082
S113061082E018D18FEC97E00197F1F700C0000059
S1130620C3FB662760F986E00DD1C2FB662760F93B
S113063085E008D1C1FB662760F984E003D16C2F03
S1130640617083E0FFD061E082E0FCD08FEC97E042
S11306500197F1F700C0000060E082E0F3D08FEC76
S113066097E00197F1F700C00000CF9108952FE7BC
S113067088E391E0215080409040E1F700C0000001
S113068082E04FDF88E24DDF8CE04BDF81E049DF21
S11306908FEC97E00197F1F700C0000086E041CFAE
S11306A093CF0F931F93CF938C01C0E0F801EC0F0D
S11306B0F11D8081882319F087DFCF5FF7CFCF91B9
S11306C01F910F9108954F925F926F927F928F9234
S11306D09F92AF92BF92CF92DF92EF92FF920F93CD
S11306E01F93CF93DF93CDB7DEB72C970FB6F89453
S11306F0DEBF0FBECDBF611571058105910521F4E3
S113070080E362DF10E046C097FF0AC0CC24DD24FA
S11307107601C61AD70AE80AF90ABB24B39403C0BF
S11307206B017C01B12C00E02AE0422E512C612C9B
S1130730712CA30192018DD3CA01B90111E0100FEC
S1130740232B242B252B11F0012FF3CF81E0B8129A
S113075004C08DE2898312E0100F00E0812E912CF9
S11307608AE0482E512C612C712C5401A01AB10836
S1130770AC0EBD1EC701B601A30192016AD3605D30
S1130780F501608369017A010F5FC114D104E104AA
S1130790F10459F7E1E0F0E0EC0FFD1FE10FF11D6A
S11307A01082CE0101967DDF2C960FB6F894DEBF41
S11307B00FBECDBFDF91CF911F910F91FF90EF90AE
S11307C0DF90CF90BF90AF909F908F907F906F906D
S11307D05F904F9008950F931F93CF938C01C0E0C7
S11307E0F801EC0FF11D8081882361F0EDDE2FEF1D
S11307F080E792E0215080409040E1F700C0000083
S1130800CF5FEECFCF911F910F910895813021F4E6
S11308108FEF860F806805C0823021F48FEF860F3A
S1130820806C7FCE089581E07CDE8FEC97E00197A9
S1130830F1F700C000000895A1D019DF24DE4ADCDE
S113084074DCFECF982F96959695969587706130B7
S1130850C1F5913091F028F09230D9F0933029F11C
S113086008954BB321E030E0B90102C0660F771F51
S11308708A95E2F7CB01842B38C048B321E030E0FD
S1130880B90102C0660F771F8A95E2F7CB01842B6A
S11308903AC045B321E030E0B90102C0660F771FCA
S11308A08A95E2F7CB01842B3CC042B321E030E0CF
S11308B0B90102C0660F771F8A95E2F7CB01842B3A
S11308C03EC09130A1F028F09230F9F0933059F104
S11308D008954BB321E030E0B90102C0660F771FE1
S11308E08A95E2F7CB01809584238BBB089548B3A6
S11308F021E030E0B90102C0660F771F8A95E2F764
S1130900CB018095842388BB089545B321E030E072
S1130910B90102C0660F771F8A95E2F7CB01809573
S1130920842385BB089542B321E030E0B90102C0BD
S1130930660F771F8A95E2F7CB018095842382BBEB
S11309400895282F2770869586958695813049F0DD
S113095030F0823041F0833079F480B305C089B33C
S113096003C086B301C083B390E002C09595879518
S11309702A95E2F78170089580E00895E0E6F0E0BA
S113098040E081E090E05191342F369536953695CC
S1130990242F2770513031F008F485C0523009F407
S11309A03FC0C5C0323001F1333061F1313071F0F4
S11309B05AB3BC0102C0660F771F2A95E2F79B0168
S11309C02095352F32233ABB3BB380C057B3BC01CB
S11309D002C0660F771F2A95E2F79B012095352FF9
S11309E0322337BB38B382C054B3BC0102C0660F94
S11309F0771F2A95E2F79B012095352F322334BBCC
S1130A0035B384C051B3BC0102C0660F771F2A9569
S1130A10E2F79B012095352F322331BB32B385C0D9
S1130A20323011F1333081F1313079F05AB3BC01F5
S1130A3002C0660F771F2A95E2F79B01362F309587
S1130A4035233ABB3BB3232B42C057B3BC0102C08E
S1130A50660F771F2A95E2F79B01362F30953523D1
S1130A6037BB38B3232B43C054B3BC0102C0660F59
S1130A70771F2A95E2F79B01362F3095352334BB37
S1130A8035B3232B25BB53C051B3BC0102C0660F41
S1130A90771F2A95E2F79B01362F3095352331BB1A
S1130AA032B3232B43C0323021F1333089F131305A
S1130AB081F05AB3BC0102C0660F771F2A95E2F792
S1130AC09B01352F322B3ABB3BB3209523232BBB01
S1130AD02EC057B3BC0102C0660F771F2A95E2F7F8
S1130AE09B01352F322B37BB38B32095232328BBEA
S1130AF01EC054B3BC0102C0660F771F2A95E2F7EB
S1130B009B01352F322B34BB35B320952323BACF29
S1130B1051B3BC0102C0660F771F2A95E2F79B010F
S1130B20352F322B31BB32B32095232322BB4F5FA9
S1130B30403209F028CF08951F920F920FB60F92FA
S1130B4011242F933F934F935F936F937F938F93CE
S1130B509F93AF93BF93EF93FF93E0911B01F091A9
S1130B601C01309709F00995FF91EF91BF91AF9166
S1130B709F918F917F916F915F914F913F912F91B1
S1130B800F900FBE0F901F9018951F920F920FB6E3
S1130B900F9211242F933F934F935F936F937F93FF
S1130BA08F939F93AF93BF93EF93FF93E0911901BA
S1130BB0F0911A01309709F00995FF91EF91BF91D7
S1130BC0AF919F918F917F916F915F914F913F91E1
S1130BD02F910F900FBE0F901F9018951F920F9298
S1130BE00FB60F9211242F933F934F935F936F93FC
S1130BF07F938F939F93AF93BF93EF93FF93E09172
S1130C001701F0911801309709F00995FF91EF91C0
S1130C10BF91AF919F918F917F916F915F914F9110
S1130C203F912F910F900FBE0F901F9018951F9218
S1130C300F920FB60F9211242F933F934F935F930C
S1130C406F937F938F939F93AF93BF93EF93FF9390
S1130C50E0912301F0912401309709F00995FF9167
S1130C60EF91BF91AF919F918F917F916F915F9120
S1130C704F913F912F910F900FBE0F901F90189599
S1130C801F920F920FB60F9211242F933F934F93FD
S1130C905F936F937F938F939F93AF93BF93EF93E0
S1130CA0FF93E0912101F0912201309709F0099519
S1130CB0FF91EF91BF91AF919F918F917F916F9130
S1130CC05F914F913F912F910F900FBE0F901F9006
S1130CD018951F920F920FB60F9211242F933F93E2
S1130CE04F935F936F937F938F939F93AF93BF9330
S1130CF0EF93FF93E0911F01F0912001309709F0E9
S1130D000995FF91EF91BF91AF919F918F917F9141
S1130D106F915F914F913F912F910F900FBE0F9064
S1130D201F9018951F920F920FB60F9211242F93B4
S1130D303F934F935F936F937F938F939F93AF935F
S1130D40BF93EF93FF93E0911D01F0911E01309743
S1130D5009F00995FF91EF91BF91AF919F918F9108
S1130D607F916F915F914F913F912F910F900FBEA3
S1130D700F901F9018951F920F920FB60F92112487
S1130D808F939F93EF93FF9380913A018A3048F4B5
S1130D909CB1E82FF0E0EB5DFE4F90838F5F809372
S1130DA03A01FF91EF919F918F910F900FBE0F9099
S1130DB01F9018951F920F920FB60F9211248F93C4
S1130DC0EF93FF93E0913901EE2351F0F0E0E25DFF
S1130DD0FE4F80818CB98091390181508093390113
S1130DE080913901811101C05598FF91EF918F9144
S1130DF00F900FBE0F901F9018951F920F920FB671
S1130E000F9211240F900FBE0F901F901895A1E21E
S1130E101A2EAA1BBB1BFD010DC0AA1FBB1FEE1F70
S1130E20FF1FA217B307E407F50720F0A21BB30BBB
S1130E30E40BF50B661F771F881F991F1A9469F737
S1130E4060957095809590959B01AC01BD01CF0193
S1130E500895052E97FB16F400940FD057FD05D086
S1130E60D6DF07FC02D046F408C050954095309573
S1130E7021953F4F4F4F5F4F089590958095709502
S1130E8061957F4F8F4F9F4F089505D0332312F400
S1130E908A1B9B0B10C0A29FB001B39FC001A39FEC
S1130EA0700D811D1124911DB29F700D811D11249F
S1130EB0911D0895F0DFB7FF0895821B930B0895E9
S1130EC0FC0188279927E89421912032E9F32930FD
S1130ED010F02E30C8F32B3239F02D3231F46894EF
S1130EE003C015D0820F911D219120532A30C8F3DD
S1130EF01EF4909581959F4F0895BB274A3031F495
S1130F00992322F4BDE2909581959F4F09C07AE020
S1130F10979F902D879F802D910D11240895BB27B5
S1130F20FB015527AA27880F991FAA1FA41710F0A1
S1130F30A41B83955051B9F7A05DAA3308F0A95DAD
S1130F40A193009779F7B111B1931192CB0100C02D
S1130F50DC01FC01672F71917723E1F7329704C01C
S1130F607C916D9370836291AE17BF07C8F30895A7
S1070F70F894FFCF1F
S1130F740100000000000001000002000000000065
S1130F840000000000000000000002020202010050
S1130F943738392F3435362A3132332D63303D2BEB
S1130FA457656C636F6D6500546F2043616C6375A2
S1130FB46C61746F720020202020202020202020C7
S1130FC4202020202020004279203A2046617468A1
S1130FD47920416E617300496E76616C696420699D
S1130FE46E707574004572726F723A6465766973D3
S1090FF4696F6E2F30004E
S9030000FC
